:020000040800F2
:1000000000500020711600087103000873030008F7
:10001000750300087703000879030008000000005A
:100020000000000000000000000000007B0300084A
:100030007D030008000000007F0300088103000822
:10004000B9160008B9160008B9160008B916000854
:10005000B9160008B9160008B9160008B916000844
:10006000B9160008B9160008B9160008B916000834
:10007000B9160008B9160008B9160008B916000824
:10008000B9160008B9160008B9160008B916000814
:10009000B9160008B9160008B9160008B916000804
:1000A000B916000889030008B9160008B916000837
:1000B000B9160008B9160008B9160008B9160008E4
:1000C000B9160008B9160008B9160008B9160008D4
:1000D000B9160008D1030008B9160008B9160008BF
:1000E000B9160008B9160008B9160008000000008B
:1000F0000000000000000000000000000000000000
:0C01000000000000000000005FF808F1A3
:10010C000348044B834202D0034B03B1184770479A
:10011C000C0000200C0000200000000005480649DF
:10012C00091A891001EBD171491002D0034B03B1AC
:10013C00184770470C0000200C0000200000000045
:10014C0010B5064C237843B9FFF7DAFF044B13B113
:10015C000448AFF300800123237010BD0C00002075
:10016C00000000000417000808B5054B1BB1054939
:10017C000548AFF30080BDE80840FFF7CFBF00BFD4
:10018C000000000010000020041700082DE9F041C9
:10019C0088B0002404940594069407942F4B9A6914
:1001AC0042F010029A619A6902F010020092009AD1
:1001BC009A6942F020029A619A6902F02002019237
:1001CC00019A9A6942F004029A619A6902F0040257
:1001DC000292029A9A6942F008029A619B6903F0B2
:1001EC0008030393039B1E4F22464FF4604138468D
:1001FC0001F040F8DFF87080224641F6F871404675
:10020C0001F038F8174E22464FF63F41304601F0C8
:10021C0031F84FF4604304930125059506940323AC
:10022C00079304A9384600F039FF41F6F87304939C
:10023C00059506940227079704A9404600F02EFF67
:10024C004FF63F43049305950694079704A930464F
:10025C0000F024FF08B0BDE8F08100BF00100240A0
:10026C0000100140000C01400008014030B587B07F
:10027C0000240294039404940594009401940E4D6C
:10028C000E4B2B6007236B60AC600323EB602C617F
:10029C006C61AC61284600F045FA4FF48053029330
:1002AC0002A9284600F075FA009401946946284684
:1002BC0000F0DEFA07B030BDF4000020002C014045
:1002CC0030B595B000240C940D940F9410940594B3
:1002DC00069407940894099401940294039404944A
:1002EC0001220A924FF480330B930E920225119542
:1002FC0012934FF4E01313930AA800F04FFB0F2353
:10030C000593069507944FF4806308930994294646
:10031C0005A800F083FD01954FF40043039301A859
:10032C0000F032FE15B030BD08B500F0FDFAFFF755
:10033C00C7FFFFF72BFFFFF799FF074800F0C2F844
:10034C00064AD36843F08073D360054A136843F0C0
:10035C0001031360FEE700BFF4000020F0ED00E0A5
:10036C00001000E07047FEE7FEE7FEE7FEE770478F
:10037C007047704708B500F0E9FA08BD08B50C4B9A
:10038C0000225A600B4B1B687BB14FF400510A4A98
:10039C00116183F00103074A1360054B5A68074B40
:1003AC001A60074800F0C7F808BD4FF00051EEE79F
:1003BC00001000E02C00002000100140280000205C
:1003CC00F400002008B54FF40051034800F058FF2A
:1003DC00024801F0ABF808BD00100140B400002049
:1003EC007047000082B00E4B9A6942F001029A618C
:1003FC009A6902F001020092009ADA6942F0805286
:10040C00DA61DB6903F080530193019B054A536861
:10041C0023F0E06343F00073536002B0704700BFF9
:10042C00001002400000014002680E4B9A4200D0BE
:10043C00704700B583B003F564439A6942F40062D7
:10044C009A619B6903F400630193019B002211469E
:10045C00192000F07DFF192000F0AEFF03B05DF80D
:10046C0004FB00BF002C014010B4036A046A24F0A2
:10047C0001040462846924F0F00444EA021223F0BB
:10048C000A030B438261036210BC704710B4036A09
:10049C0023F0100303628469036A24F4704444EA71
:1004AC00023223F0A00343EA01138261036210BC01
:1004BC007047836823F07003194341F00701816092
:1004CC007047000090F83D30DBB2012B27D102239E
:1004DC0080F83D300268D36843F00103D3600368B1
:1004EC00114A934210D0B3F1804F0DD0A2F5943243
:1004FC00934209D002F58062934205D01A6842F00B
:10050C0001021A60002070479A6802F00702062A5E
:10051C0007D01A6842F001021A60002070470120CF
:10052C0070470020704700BF002C01407047704797
:10053C0070477047704710B5044603681A6912F08B
:10054C00020F11D0DA6812F0020F0DD06FF0020218
:10055C001A610123037703689B6913F0030F70D0B2
:10056C00FFF7E6FF0023237723681A6912F0040FC4
:10057C0012D0DA6812F0040F0ED06FF004021A6178
:10058C000223237723689B6913F4407F5FD02046B6
:10059C00FFF7CEFF0023237723681A6912F0080FA8
:1005AC0012D0DA6812F0080F0ED06FF008021A6140
:1005BC00042323772368DB6913F0030F4ED0204606
:1005CC00FFF7B6FF0023237723681A6912F0100F88
:1005DC0012D0DA6812F0100F0ED06FF010021A6100
:1005EC00082323772368DB6913F4407F3DD0204632
:1005FC00FFF79EFF0023237723681A6912F0010F7F
:10060C0003D0DA6812F0010F36D123681A6912F0A0
:10061C00800F03D0DA6812F0800F34D123681A6986
:10062C0012F0400F03D0DA6812F0400F32D1236879
:10063C001A6912F0200F03D0DA6812F0200F30D1B3
:10064C0010BDFFF774FF2046FFF773FF8AE72046C3
:10065C00FFF76DFF2046FFF76CFF9BE72046FFF787
:10066C0066FF2046FFF765FFACE72046FFF75FFF0C
:10067C002046FFF75EFFBDE76FF001021A612046CE
:10068C00FFF754FFC1E76FF080021A61204600F0BB
:10069C0024F9C3E76FF040021A612046FFF74AFFC6
:1006AC00C5E76FF020021A61204600F015F9C7E784
:1006BC0003681B4A90420AD0B0F1804F07D0A2F5D4
:1006CC009432904203D002F58062904203D123F021
:1006DC0070034A681343124A90420AD0B0F1804F1B
:1006EC0007D0A2F59432904203D002F5806290427A
:1006FC0003D123F44073CA68134323F080034A697F
:10070C00134303608B68C3620B688362044B98428B
:10071C0002D00123436170470B690363F9E700BF03
:10072C00002C014040B310B5044690F83D30F3B1B5
:10073C00022384F83D30214651F8040BFFF7B8FF33
:10074C00012384F8463084F83E3084F83F3084F836
:10075C00403084F8413084F8423084F8433084F8D7
:10076C00443084F8453084F83D30002010BD80F8CA
:10077C003C30FFF759FEDBE70120704710B484686A
:10078C0024F47F4442EA03230B432343836010BCCD
:10079C00704790F83C30012B67D010B5044601230C
:1007AC0080F83C30022380F83D300268936823F4D3
:1007BC007F4323F0770393600B68402B4BD013D906
:1007CC00602B3ED025D9702B2FD0B3F5005F19D1FB
:1007DC00CB684A6889680068FFF7D0FF2268936885
:1007EC0043F4804393600DE0102B04D008D9202BE8
:1007FC0001D0302B06D119462068FFF75AFE01E0D4
:10080C00002BF8D0012384F83D30002084F83C0004
:10081C0010BD502BF6D1CA6849680068FFF724FE5A
:10082C0050212068FFF745FEECE7CB684A688968E1
:10083C000068FFF7A3FF2268936843F07703936087
:10084C00E0E7CA6849680068FFF720FE602120686D
:10085C00FFF72FFED6E7CA6849680068FFF704FE69
:10086C0040212068FFF725FECCE7022070470000EE
:10087C0090F83C30012B2BD030B4012380F83C3065
:10088C00022380F83D3003685C689D6824F0700496
:10089C000A6822435A6003680E4A93420AD0B3F1A5
:1008AC00804F07D0A2F59432934203D002F58062B8
:1008BC00934204D125F080054A6815439D600123BD
:1008CC0080F83D30002380F83C30184630BC70472F
:1008DC0002207047002C01407047704710B5044649
:1008EC000E4B18784FF47A73B3FBF0F30C4A106884
:1008FC00B0FBF3F000F06EFD68B90F2C01D90120AC
:10090C000AE0002221464FF0FF3000F021FD054B9C
:10091C001C60002000E0012010BD00BF040000207E
:10092C00000000200800002008B5074A136843F0B7
:10093C0010031360032000F0F9FC0020FFF7CEFF3A
:10094C00FFF750FD002008BD00200240034A11684B
:10095C00034B1B780B441360704700BF84010020CD
:10096C0004000020014B1868704700BF8401002070
:10097C0082B0084B1B68084AA2FB03235B0A00FBEE
:10098C0003F0019000BF019B5A1E0192002BF9D17C
:10099C0002B0704700000020D34D6210002800F018
:1009AC00F18170B582B00446036813F0010F2CD0AE
:1009BC00AA4B5B6803F00C03042B1DD0A74B5B68A0
:1009CC0003F00C03082B12D06368B3F5803F41D0C1
:1009DC00002B55D103F1804303F504331A6822F43C
:1009EC0080321A601A6822F480221A6037E09B4B1E
:1009FC005B6813F4803FE7D0984B1B6813F4003FFF
:100A0C0003D06368002B00F0BF81236813F0020F42
:100A1C0075D0924B5B6813F00C0F5FD08F4B5B68FB
:100A2C0003F00C03082B54D02369002B00F08980B1
:100A3C008B4B01221A60FFF795FF0546874B1B680D
:100A4C0013F0020F74D1FFF78DFF401B0228F5D96C
:100A5C0003209EE1814A136843F48033136063687A
:100A6C0043B3FFF77FFF05467C4B1B6813F4003F35
:100A7C00CBD1FFF777FF401B6428F5D9032088E121
:100A8C00B3F5A02F09D0754B1A6822F480321A6086
:100A9C001A6822F480221A60E1E703F18043A3F57F
:100AAC003C331A6842F480221A601A6842F480328D
:100ABC001A60D4E7FFF756FF0546684B1B6813F422
:100ACC00003FA2D0FFF74EFF401B6428F5D903204E
:100ADC005FE1624B5B6813F4803FA5D15F4B1B68F1
:100AEC0013F0020F03D02369012B40F04F815B4AB6
:100AFC00136823F0F803616943EAC10313602368A8
:100B0C0013F0080F32D0A369002B5BD0554B012298
:100B1C001A60FFF727FF0546504B5B6A13F0020F74
:100B2C0021D1FFF71FFF401B0228F5D9032030E12C
:100B3C004A4A136823F0F803616943EAC10313605E
:100B4C00DDE7474B00221A60FFF70CFF0546434BCD
:100B5C001B6813F0020FD2D0FFF704FF401B0228D2
:100B6C00F5D9032015E10120FFF702FF236813F0EC
:100B7C00040F00F09780394BDB6913F0805F33D1A1
:100B8C00364BDA6942F08052DA61DB6903F080534C
:100B9C000193019B0125344B1B6813F4807F25D0F6
:100BAC00E368012B36D0002B4CD103F1804303F5C5
:100BBC0004331A6A22F001021A621A6A22F0040241
:100BCC001A622CE0274B00221A60FFF7CBFE054679
:100BDC00224B5B6A13F0020FC8D0FFF7C3FE401B19
:100BEC000228F5D90320D4E00025D4E71E4A136867
:100BFC0043F480731360FFF7B5FE06461A4B1B686F
:100C0C0013F4807FCCD1FFF7ADFE801B6428F5D99F
:100C1C000320BEE0114A136A43F001031362E36838
:100C2C0073B3FFF79FFE06460C4B1B6A13F0020FC3
:100C3C0037D1FFF797FE801B41F288339842F3D9E6
:100C4C000320A6E0052B11D0044B1A6A22F00102F6
:100C5C001A621A6A22F004021A62E0E700100240DB
:100C6C000000424280044242007000404D4B1A6A20
:100C7C0042F004021A621A6A42F001021A62CEE7CA
:100C8C00FFF770FE0646474B1B6A13F0020F08D0A5
:100C9C00FFF768FE801B41F288339842F3D903209A
:100CAC0077E0E5B9E369002B72D03E4A526802F056
:100CBC000C02082A56D0022B17D03B4B00221A608C
:100CCC00FFF750FE0446374B1B6813F0007F47D0EC
:100CDC00FFF748FE001B0228F5D9032059E0314AE2
:100CEC00D36923F08053D361DCE72F4B00221A60C9
:100CFC00FFF738FE05462B4B1B6813F0007F06D020
:100D0C00FFF730FE401B0228F5D9032041E0236A8F
:100D1C00B3F5803F1AD023494B6823F47413226A2D
:100D2C00606A024313434B601F4B01221A60FFF7AA
:100D3C0019FE04461B4B1B6813F0007F0ED1FFF706
:100D4C0011FE001B0228F5D9032022E0154A536836
:100D5C0023F40033A1680B435360DCE7002018E058
:100D6C00002016E0012B16D00E4B5B6803F480318B
:100D7C00226A914211D103F47013626A93420ED12C
:100D8C00002006E001207047012002E0012000E075
:100D9C00002002B070BD0120FBE70120F9E7012023
:100DAC00F7E700BF001002406000424210B487B069
:100DBC00164C94E80F000DF1180C0CE90F00238A67
:100DCC00ADF80430124B5B6803F00C02082A03D018
:100DDC00104807B010BC7047C3F38342624412F84A
:100DEC00102C13F4803F0CD0094B5B68C3F34043C9
:100DFC00634413F8143C074800FB02F0B0FBF3F01B
:100E0C00E7E7054800FB02F0E3E700BF1C1700080A
:100E1C000010024000127A0000093D00002800F08A
:100E2C00A08070B50446534B1B6803F007038B423C
:100E3C000BD2504A136823F007030B43136013685B
:100E4C0003F007038B4240F08E80236813F0020FEF
:100E5C0017D013F0040F04D0474A536843F4E063EF
:100E6C005360236813F0080F04D0434A536843F4CB
:100E7C0060535360404A536823F0F003A068034367
:100E8C0053600D46236813F0010F31D06368012BBA
:100E9C0020D0022B25D0384A126812F0020F64D0F1
:100EAC0035494A6822F0030213434B60FFF75AFDA1
:100EBC000646314B5B6803F00C036268B3EB820FA0
:100ECC0016D0FFF74FFD801B41F288339842F0D9C2
:100EDC00032045E0284A126812F4003FE0D10120BB
:100EEC003EE0254A126812F0007FD9D1012037E08C
:100EFC00204B1B6803F00703AB420AD91D4A136849
:100F0C0023F007032B431360136803F00703AB4272
:100F1C002DD1236813F0040F06D0174A536823F41D
:100F2C00E063E1680B435360236813F0080F07D0AC
:100F3C00114A536823F46053216943EAC103536097
:100F4C00FFF734FF0C4B5B68C3F303130B4AD35C02
:100F5C00D8400B4B18600B4B1868FFF7BFFC0020F8
:100F6C0070BD012070470120FAE70120F8E701204D
:100F7C00F6E700BF002002400010024030170008C6
:100F8C00000000200800002070B582B00446036801
:100F9C0013F0010F34D03E4BDB6913F0805F48D166
:100FAC003B4BDA6942F08052DA61DB6903F0805323
:100FBC000193019B0125374B1B6813F4807F3AD0BA
:100FCC00334B1B6A13F4407311D0626802F4407205
:100FDC009A420CD02E4A136A23F440702E490126F3
:100FEC000E6000260E60106213F0010F37D1284AF4
:100FFC00136A23F4407361680B431362002D3FD1D5
:10100C00236813F0020F06D0214A536823F440439F
:10101C00A1680B435360236813F0100F35D01C4AA2
:10102C00536823F48003E1680B435360002002B043
:10103C0070BD0025BFE7174A136843F48073136033
:10104C00FFF790FC0646134B1B6813F4807FB7D157
:10105C00FFF788FC801B6428F5D90320E7E7FFF72E
:10106C0081FC06460A4B1B6A13F0020FBFD1FFF737
:10107C0079FC801B41F288339842F3D90320D6E7E0
:10108C00D36923F08053D361BAE70020CFE700BFC8
:10109C00001002400070004040044242F0B482B0A4
:1010AC0000263546A0E0002A58D0012A10D1CE687F
:1010BC000EE06A4FBA4251D048D9694FBA424DD06E
:1010CC0007F58037BA4249D0A7F58017BA4245D008
:1010DC00FF2B57D88446FF2B57D8AC00DCF80020E8
:1010EC000F27A74022EA070206FA04F42243CCF8A1
:1010FC0000204A6812F0805F75D05A4A946944F017
:10110C0001049461926902F001020192019AAC0807
:10111C00A71C554A52F8272005F00307BF004FF0D3
:10112C000F0C0CFA07FC22EA0C0C504A904232D0FD
:10113C0002F58062904271D002F5806290426FD0CD
:10114C0002F58062904224D0042225E0A7F5801796
:10115C00BA4203D007F58037BA42B9D18A687AB15E
:10116C00012A08D044610826B2E7CE680836AFE7FA
:10117C00CE680C36ACE704610826A9E70026A7E781
:10118C000426A5E700F1040CA5E7A5F10804A400CA
:10119C00A4E7032200E00022BA4042EA0C02023427
:1011AC00314F47F824204A6812F4803F3AD0304C33
:1011BC0022681A4322604A6812F4003F38D02C4C43
:1011CC0062681A4362604A6812F4801F36D0284C59
:1011DC00A2681A43A2604A6812F4001F34D0244C4F
:1011EC00E2681343E36001350B6833FA05F231D042
:1011FC000124AC4023409C42F5D14A68122AB7D056
:10120C003FF657AF022AB0D07FF64DAF032AB5D0C8
:10121C00112A7FF45DAFCE68043659E70122BBE793
:10122C000222B9E7124C226822EA03022260C2E7CA
:10123C000F4C626822EA03026260C4E70C4CA2689D
:10124C0022EA0302A260C6E7094CE26822EA030321
:10125C00E360C8E702B0F0BC704700BF000021108B
:10126C000000311000100240000001400008014055
:10127C00000401400AB10161704709040161704723
:10128C00C36801EA030221EA030141EA0241016158
:10129C007047000008B590F82130022B03D00423CE
:1012AC008363012008BD0268136823F00E031360EA
:1012BC000268136823F0010313600368194A934210
:1012CC0014D0143293421FD0143293421ED01432D5
:1012DC0093421ED0143293421ED01432934202D049
:1012EC004FF0807203E04FF4801200E001220E4BAD
:1012FC005A60012380F82130002380F82030436BA2
:10130C006BB198470020CDE71022F0E74FF48072C4
:10131C00EDE74FF48052EAE74FF48032E7E7002024
:10132C00C0E700BF0800024000000240074AD36833
:10133C0023F4E0631B041B0C000200F4E060184370
:10134C0040F0BF6040F40030D060704700ED00E02A
:10135C0030B4174BDB68C3F30223C3F10704042C2E
:10136C0028BF04241D1D062D01D9033B00E00023DA
:10137C004FF0FF3505FA04F421EA0401994005FA0F
:10138C0003F322EA03031943002809DB0901C9B25C
:10139C0000F1604000F5614080F8001330BC7047EC
:1013AC0000F00F000901C9B2024B1954F6E700BF57
:1013BC0000ED00E014ED00E0002807DB00F01F0258
:1013CC00400901239340024A42F82030704700BF85
:1013DC0000E100E00138B0F1807F0AD2064B586082
:1013EC00064AF02182F823100020986007221A6028
:1013FC0070470120704700BF10E000E000ED00E0F6
:10140C000268D36823F49073D3600268536923F0A5
:10141C0001035361202380F83A30704790F839303B
:10142C00DBB2212B01D0022070478368B3F5805FBB
:10143C0016D0036A5A1C02621A7803685A60C38C6D
:10144C00013B9BB2C3844BB90268D36823F0800381
:10145C00D3600268D36843F04003D3600020704728
:10146C000369002BE5D1036A1B880268C3F30803E8
:10147C005360036A02330362E1E7704708B5016801
:10148C00CB6823F04003CB60202380F83930FFF782
:10149C00F4FF002008BD704708B590F83A30DBB275
:1014AC00222B40D18368B3F5805F13D0826AB3F5E9
:1014BC00805F02D0DBB90369CBB903685B6813703A
:1014CC00836A01338362C38D013B9BB2C385A3B195
:1014DC00002008BD0269002AE8D1826A03685B68B3
:1014EC00C3F308031380836A02338362EBE7036858
:1014FC005B6803F07F031370E2E70268D36823F0A4
:10150C002003D3600268D36823F48073D36002682D
:10151C00536923F001035361202380F83A30FFF71D
:10152C00BAFF0020D5E70220D3E7704710B5044678
:10153C0002681368D168526913F00F0005D113F0DB
:10154C00200F02D011F0200F13D128B112F001029C
:10155C0013D111F4907F10D113F0800F02D011F041
:10156C00800F6CD113F0400F02D011F0400F6AD1F4
:10157C0010BD2046FFF790FFFAE713F0010F06D0DD
:10158C0011F4807F03D0E06B40F00100E06313F0B6
:10159C00040F04D01AB1E06B40F00200E06313F0CA
:1015AC00020F04D01AB1E06B40F00400E06313F0BA
:1015BC00080F07D011F0200F00D11AB1E26B42F0E6
:1015CC000802E263E26B002AD2D013F0200F02D0A3
:1015DC0011F0200F21D123685B6903F04003E26B0B
:1015EC0012F0080F00D123B32046FFF709FF236840
:1015FC005A6912F0400F18D05A6922F040025A6111
:10160C00636B73B1124A5A63606BFFF743FE002899
:10161C00AED0606B436B9847AAE72046FFF73CFFC0
:10162C00D9E72046FFF781FFA2E72046FFF77DFFB1
:10163C009EE72046FFF779FF0023E36398E72046F7
:10164C00FFF7ECFE94E72046FFF718FF90E700BF8A
:10165C006116000808B5406A0023C385C384FFF7F0
:10166C0064FF08BD002103E00B4B5B584350043171
:10167C000A480B4B42189A42F6D30A4A02E000235E
:10168C0042F8043B084B9A42F9D3FEF7A9FE00F04E
:10169C000FF8FEF749FE70474817000800000020BD
:1016AC000C0000200C00002088010020FEE7000048
:1016BC0070B500260C4D0D4C641BA410A64209D12C
:1016CC0000F01AF800260A4D0A4C641BA410A6421E
:1016DC0005D170BD55F8043B98470136EEE755F837
:1016EC00043B98470136F2E7401700084017000802
:1016FC004017000844170008F8B500BFF8BC08BC38
:10170C009E467047F8B500BFF8BC08BC9E467047B3
:10171C0002030405060708090A0B0C0D0E0F101026
:10172C0001020000000000000000000001020304A0
:04173C00060708098B
:041740007501000827
:041744004D0100084B
:0C1748000024F40001000000100000006C
:040000050800167168
:00000001FF
